{"abi":[{"type":"constructor","inputs":[],"stateMutability":"nonpayable"},{"type":"function","name":"adminMint","inputs":[{"name":"recipient","type":"address","internalType":"address"},{"name":"missionId","type":"uint256","internalType":"uint256"},{"name":"tokenURI","type":"string","internalType":"string"}],"outputs":[],"stateMutability":"nonpayable"},{"type":"function","name":"approve","inputs":[{"name":"to","type":"address","internalType":"address"},{"name":"tokenId","type":"uint256","internalType":"uint256"}],"outputs":[],"stateMutability":"nonpayable"},{"type":"function","name":"balanceOf","inputs":[{"name":"owner","type":"address","internalType":"address"}],"outputs":[{"name":"","type":"uint256","internalType":"uint256"}],"stateMutability":"view"},{"type":"function","name":"completeMission","inputs":[{"name":"missionId","type":"uint256","internalType":"uint256"},{"name":"tokenURI","type":"string","internalType":"string"}],"outputs":[],"stateMutability":"nonpayable"},{"type":"function","name":"getApproved","inputs":[{"name":"tokenId","type":"uint256","internalType":"uint256"}],"outputs":[{"name":"","type":"address","internalType":"address"}],"stateMutability":"view"},{"type":"function","name":"isApprovedForAll","inputs":[{"name":"owner","type":"address","internalType":"address"},{"name":"operator","type":"address","internalType":"address"}],"outputs":[{"name":"","type":"bool","internalType":"bool"}],"stateMutability":"view"},{"type":"function","name":"missionCompleted","inputs":[{"name":"","type":"uint256","internalType":"uint256"},{"name":"","type":"address","internalType":"address"}],"outputs":[{"name":"","type":"bool","internalType":"bool"}],"stateMutability":"view"},{"type":"function","name":"name","inputs":[],"outputs":[{"name":"","type":"string","internalType":"string"}],"stateMutability":"view"},{"type":"function","name":"owner","inputs":[],"outputs":[{"name":"","type":"address","internalType":"address"}],"stateMutability":"view"},{"type":"function","name":"ownerOf","inputs":[{"name":"tokenId","type":"uint256","internalType":"uint256"}],"outputs":[{"name":"","type":"address","internalType":"address"}],"stateMutability":"view"},{"type":"function","name":"renounceOwnership","inputs":[],"outputs":[],"stateMutability":"nonpayable"},{"type":"function","name":"safeTransferFrom","inputs":[{"name":"from","type":"address","internalType":"address"},{"name":"to","type":"address","internalType":"address"},{"name":"tokenId","type":"uint256","internalType":"uint256"}],"outputs":[],"stateMutability":"nonpayable"},{"type":"function","name":"safeTransferFrom","inputs":[{"name":"from","type":"address","internalType":"address"},{"name":"to","type":"address","internalType":"address"},{"name":"tokenId","type":"uint256","internalType":"uint256"},{"name":"data","type":"bytes","internalType":"bytes"}],"outputs":[],"stateMutability":"nonpayable"},{"type":"function","name":"setApprovalForAll","inputs":[{"name":"operator","type":"address","internalType":"address"},{"name":"approved","type":"bool","internalType":"bool"}],"outputs":[],"stateMutability":"nonpayable"},{"type":"function","name":"supportsInterface","inputs":[{"name":"interfaceId","type":"bytes4","internalType":"bytes4"}],"outputs":[{"name":"","type":"bool","internalType":"bool"}],"stateMutability":"view"},{"type":"function","name":"symbol","inputs":[],"outputs":[{"name":"","type":"string","internalType":"string"}],"stateMutability":"view"},{"type":"function","name":"tokenCounter","inputs":[],"outputs":[{"name":"","type":"uint256","internalType":"uint256"}],"stateMutability":"view"},{"type":"function","name":"tokenURI","inputs":[{"name":"tokenId","type":"uint256","internalType":"uint256"}],"outputs":[{"name":"","type":"string","internalType":"string"}],"stateMutability":"view"},{"type":"function","name":"transferFrom","inputs":[{"name":"from","type":"address","internalType":"address"},{"name":"to","type":"address","internalType":"address"},{"name":"tokenId","type":"uint256","internalType":"uint256"}],"outputs":[],"stateMutability":"nonpayable"},{"type":"function","name":"transferOwnership","inputs":[{"name":"newOwner","type":"address","internalType":"address"}],"outputs":[],"stateMutability":"nonpayable"},{"type":"event","name":"Approval","inputs":[{"name":"owner","type":"address","indexed":true,"internalType":"address"},{"name":"approved","type":"address","indexed":true,"internalType":"address"},{"name":"tokenId","type":"uint256","indexed":true,"internalType":"uint256"}],"anonymous":false},{"type":"event","name":"ApprovalForAll","inputs":[{"name":"owner","type":"address","indexed":true,"internalType":"address"},{"name":"operator","type":"address","indexed":true,"internalType":"address"},{"name":"approved","type":"bool","indexed":false,"internalType":"bool"}],"anonymous":false},{"type":"event","name":"BatchMetadataUpdate","inputs":[{"name":"_fromTokenId","type":"uint256","indexed":false,"internalType":"uint256"},{"name":"_toTokenId","type":"uint256","indexed":false,"internalType":"uint256"}],"anonymous":false},{"type":"event","name":"MetadataUpdate","inputs":[{"name":"_tokenId","type":"uint256","indexed":false,"internalType":"uint256"}],"anonymous":false},{"type":"event","name":"OwnershipTransferred","inputs":[{"name":"previousOwner","type":"address","indexed":true,"internalType":"address"},{"name":"newOwner","type":"address","indexed":true,"internalType":"address"}],"anonymous":false},{"type":"event","name":"Transfer","inputs":[{"name":"from","type":"address","indexed":true,"internalType":"address"},{"name":"to","type":"address","indexed":true,"internalType":"address"},{"name":"tokenId","type":"uint256","indexed":true,"internalType":"uint256"}],"anonymous":false},{"type":"error","name":"ERC721IncorrectOwner","inputs":[{"name":"sender","type":"address","internalType":"address"},{"name":"tokenId","type":"uint256","internalType":"uint256"},{"name":"owner","type":"address","internalType":"address"}]},{"type":"error","name":"ERC721InsufficientApproval","inputs":[{"name":"operator","type":"address","internalType":"address"},{"name":"tokenId","type":"uint256","internalType":"uint256"}]},{"type":"error","name":"ERC721InvalidApprover","inputs":[{"name":"approver","type":"address","internalType":"address"}]},{"type":"error","name":"ERC721InvalidOperator","inputs":[{"name":"operator","type":"address","internalType":"address"}]},{"type":"error","name":"ERC721InvalidOwner","inputs":[{"name":"owner","type":"address","internalType":"address"}]},{"type":"error","name":"ERC721InvalidReceiver","inputs":[{"name":"receiver","type":"address","internalType":"address"}]},{"type":"error","name":"ERC721InvalidSender","inputs":[{"name":"sender","type":"address","internalType":"address"}]},{"type":"error","name":"ERC721NonexistentToken","inputs":[{"name":"tokenId","type":"uint256","internalType":"uint256"}]},{"type":"error","name":"OwnableInvalidOwner","inputs":[{"name":"owner","type":"address","internalType":"address"}]},{"type":"error","name":"OwnableUnauthorizedAccount","inputs":[{"name":"account","type":"address","internalType":"address"}]}],"bytecode":{"object":"0x608060405234801561000f575f5ffd5b50336040518060400160405280600e81526020017f436c65616e204d697373696f6e730000000000000000000000000000000000008152506040518060400160405280600581526020017f434d495353000000000000000000000000000000000000000000000000000000815250815f908161008b919061043b565b50806001908161009b919061043b565b5050505f73ffffffffffffffffffffffffffffffffffffffff168173ffffffffffffffffffffffffffffffffffffffff160361010e575f6040517f1e4fbdf70000000000000000000000000000000000000000000000000000000081526004016101059190610549565b60405180910390fd5b61011d8161012a60201b60201c565b505f600881905550610562565b5f60075f9054906101000a900473ffffffffffffffffffffffffffffffffffffffff1690508160075f6101000a81548173ffffffffffffffffffffffffffffffffffffffff021916908373ffffffffffffffffffffffffffffffffffffffff1602179055508173ffffffffffffffffffffffffffffffffffffffff168173ffffffffffffffffffffffffffffffffffffffff167f8be0079c531659141344cd1fd0a4f28419497f9722a3daafe3b4186f6b6457e060405160405180910390a35050565b5f81519050919050565b7f4e487b71000000000000000000000000000000000000000000000000000000005f52604160045260245ffd5b7f4e487b71000000000000000000000000000000000000000000000000000000005f52602260045260245ffd5b5f600282049050600182168061026857607f821691505b60208210810361027b5761027a610224565b5b50919050565b5f819050815f5260205f209050919050565b5f6020601f8301049050919050565b5f82821b905092915050565b5f600883026102dd7fffffffffffffffffffffffffffffffffffffffffffffffffffffffffffffffff826102a2565b6102e786836102a2565b95508019841693508086168417925050509392505050565b5f819050919050565b5f819050919050565b5f61032b610326610321846102ff565b610308565b6102ff565b9050919050565b5f819050919050565b61034483610311565b61035861035082610332565b8484546102ae565b825550505050565b5f5f905090565b61036f610360565b61037a81848461033b565b505050565b5f5b828110156103a0576103955f828401610367565b600181019050610381565b505050565b601f8211156103f357828211156103f2576103bf81610281565b6103c883610293565b6103d185610293565b60208610156103de575f90505b8083016103ed8284038261037f565b505050505b5b505050565b5f82821c905092915050565b5f6104135f19846008026103f8565b1980831691505092915050565b5f61042b8383610404565b9150826002028217905092915050565b610444826101ed565b67ffffffffffffffff81111561045d5761045c6101f7565b5b6104678254610251565b6104728282856103a5565b5f60209050601f8311600181146104a3575f8415610491578287015190505b61049b8582610420565b865550610502565b601f1984166104b186610281565b5f5b828110156104d8578489015182556001820191506020850194506020810190506104b3565b868310156104f557848901516104f1601f891682610404565b8355505b6001600288020188555050505b505050505050565b5f73ffffffffffffffffffffffffffffffffffffffff82169050919050565b5f6105338261050a565b9050919050565b61054381610529565b82525050565b5f60208201905061055c5f83018461053a565b92915050565b61298b8061056f5f395ff3fe608060405234801561000f575f5ffd5b506004361061012a575f3560e01c80638da5cb5b116100ab578063c87b56dd1161006f578063c87b56dd1461032a578063c91435e21461035a578063d082e38114610376578063e985e9c514610394578063f2fde38b146103c45761012a565b80638da5cb5b1461028657806395d89b41146102a4578063a22cb465146102c2578063b335cca8146102de578063b88d4fde1461030e5761012a565b806342842e0e116100f257806342842e0e146101e45780636352211e14610200578063676209dc1461023057806370a082311461024c578063715018a61461027c5761012a565b806301ffc9a71461012e57806306fdde031461015e578063081812fc1461017c578063095ea7b3146101ac57806323b872dd146101c8575b5f5ffd5b61014860048036038101906101439190611d38565b6103e0565b6040516101559190611d7d565b60405180910390f35b610166610440565b6040516101739190611e06565b60405180910390f35b61019660048036038101906101919190611e59565b6104cf565b6040516101a39190611ec3565b60405180910390f35b6101c660048036038101906101c19190611f06565b6104ea565b005b6101e260048036038101906101dd9190611f44565b610500565b005b6101fe60048036038101906101f99190611f44565b6105ff565b005b61021a60048036038101906102159190611e59565b61061e565b6040516102279190611ec3565b60405180910390f35b61024a600480360381019061024591906120c0565b61062f565b005b6102666004803603810190610261919061211a565b610762565b6040516102739190612154565b60405180910390f35b610284610818565b005b61028e61082b565b60405161029b9190611ec3565b60405180910390f35b6102ac610853565b6040516102b99190611e06565b60405180910390f35b6102dc60048036038101906102d79190612197565b6108e3565b005b6102f860048036038101906102f391906121d5565b6108f9565b6040516103059190611d7d565b60405180910390f35b610328600480360381019061032391906122b1565b610923565b005b610344600480360381019061033f9190611e59565b610948565b6040516103519190611e06565b60405180910390f35b610374600480360381019061036f9190612331565b610a53565b005b61037e610b8f565b60405161038b9190612154565b60405180910390f35b6103ae60048036038101906103a9919061239d565b610b95565b6040516103bb9190611d7d565b60405180910390f35b6103de60048036038101906103d9919061211a565b610c23565b005b5f634906490660e01b7bffffffffffffffffffffffffffffffffffffffffffffffffffffffff1916827bffffffffffffffffffffffffffffffffffffffffffffffffffffffff19161480610439575061043882610ca7565b5b9050919050565b60605f805461044e90612408565b80601f016020809104026020016040519081016040528092919081815260200182805461047a90612408565b80156104c55780601f1061049c576101008083540402835291602001916104c5565b820191905f5260205f20905b8154815290600101906020018083116104a857829003601f168201915b5050505050905090565b5f6104d982610d88565b506104e382610e0e565b9050919050565b6104fc82826104f7610e47565b610e4e565b5050565b5f73ffffffffffffffffffffffffffffffffffffffff168273ffffffffffffffffffffffffffffffffffffffff1603610570575f6040517f64a0ae920000000000000000000000000000000000000000000000000000000081526004016105679190611ec3565b60405180910390fd5b5f610583838361057e610e47565b610e60565b90508373ffffffffffffffffffffffffffffffffffffffff168173ffffffffffffffffffffffffffffffffffffffff16146105f9578382826040517f64283d7b0000000000000000000000000000000000000000000000000000000081526004016105f093929190612438565b60405180910390fd5b50505050565b61061983838360405180602001604052805f815250610923565b505050565b5f61062882610d88565b9050919050565b60095f8381526020019081526020015f205f3373ffffffffffffffffffffffffffffffffffffffff1673ffffffffffffffffffffffffffffffffffffffff1681526020019081526020015f205f9054906101000a900460ff16156106c8576040517f08c379a00000000000000000000000000000000000000000000000000000000081526004016106bf906124b7565b60405180910390fd5b5f600854905060085f8154809291906106e090612502565b91905055506106ef338261106b565b6106f98183611088565b600160095f8581526020019081526020015f205f3373ffffffffffffffffffffffffffffffffffffffff1673ffffffffffffffffffffffffffffffffffffffff1681526020019081526020015f205f6101000a81548160ff021916908315150217905550505050565b5f5f73ffffffffffffffffffffffffffffffffffffffff168273ffffffffffffffffffffffffffffffffffffffff16036107d3575f6040517f89c62b640000000000000000000000000000000000000000000000000000000081526004016107ca9190611ec3565b60405180910390fd5b60035f8373ffffffffffffffffffffffffffffffffffffffff1673ffffffffffffffffffffffffffffffffffffffff1681526020019081526020015f20549050919050565b6108206110e2565b6108295f611169565b565b5f60075f9054906101000a900473ffffffffffffffffffffffffffffffffffffffff16905090565b60606001805461086290612408565b80601f016020809104026020016040519081016040528092919081815260200182805461088e90612408565b80156108d95780601f106108b0576101008083540402835291602001916108d9565b820191905f5260205f20905b8154815290600101906020018083116108bc57829003601f168201915b5050505050905090565b6108f56108ee610e47565b838361122c565b5050565b6009602052815f5260405f20602052805f5260405f205f915091509054906101000a900460ff1681565b61092e848484610500565b610942610939610e47565b85858585611395565b50505050565b606061095382610d88565b505f60065f8481526020019081526020015f20805461097190612408565b80601f016020809104026020016040519081016040528092919081815260200182805461099d90612408565b80156109e85780601f106109bf576101008083540402835291602001916109e8565b820191905f5260205f20905b8154815290600101906020018083116109cb57829003601f168201915b505050505090505f6109f8611541565b90505f815103610a0c578192505050610a4e565b5f82511115610a40578082604051602001610a28929190612583565b60405160208183030381529060405292505050610a4e565b610a4984611557565b925050505b919050565b610a5b6110e2565b60095f8381526020019081526020015f205f8473ffffffffffffffffffffffffffffffffffffffff1673ffffffffffffffffffffffffffffffffffffffff1681526020019081526020015f205f9054906101000a900460ff1615610af4576040517f08c379a0000000000000000000000000000000000000000000000000000000008152600401610aeb906124b7565b60405180910390fd5b5f600854905060085f815480929190610b0c90612502565b9190505550610b1b848261106b565b610b258183611088565b600160095f8581526020019081526020015f205f8673ffffffffffffffffffffffffffffffffffffffff1673ffffffffffffffffffffffffffffffffffffffff1681526020019081526020015f205f6101000a81548160ff02191690831515021790555050505050565b60085481565b5f60055f8473ffffffffffffffffffffffffffffffffffffffff1673ffffffffffffffffffffffffffffffffffffffff1681526020019081526020015f205f8373ffffffffffffffffffffffffffffffffffffffff1673ffffffffffffffffffffffffffffffffffffffff1681526020019081526020015f205f9054906101000a900460ff16905092915050565b610c2b6110e2565b5f73ffffffffffffffffffffffffffffffffffffffff168173ffffffffffffffffffffffffffffffffffffffff1603610c9b575f6040517f1e4fbdf7000000000000000000000000000000000000000000000000000000008152600401610c929190611ec3565b60405180910390fd5b610ca481611169565b50565b5f7f80ac58cd000000000000000000000000000000000000000000000000000000007bffffffffffffffffffffffffffffffffffffffffffffffffffffffff1916827bffffffffffffffffffffffffffffffffffffffffffffffffffffffff19161480610d7157507f5b5e139f000000000000000000000000000000000000000000000000000000007bffffffffffffffffffffffffffffffffffffffffffffffffffffffff1916827bffffffffffffffffffffffffffffffffffffffffffffffffffffffff1916145b80610d815750610d80826115bd565b5b9050919050565b5f5f610d9383611626565b90505f73ffffffffffffffffffffffffffffffffffffffff168173ffffffffffffffffffffffffffffffffffffffff1603610e0557826040517f7e273289000000000000000000000000000000000000000000000000000000008152600401610dfc9190612154565b60405180910390fd5b80915050919050565b5f60045f8381526020019081526020015f205f9054906101000a900473ffffffffffffffffffffffffffffffffffffffff169050919050565b5f33905090565b610e5b838383600161165f565b505050565b5f5f610e6b84611626565b90505f73ffffffffffffffffffffffffffffffffffffffff168373ffffffffffffffffffffffffffffffffffffffff1614610eac57610eab81848661181e565b5b5f73ffffffffffffffffffffffffffffffffffffffff168173ffffffffffffffffffffffffffffffffffffffff1614610f3757610eeb5f855f5f61165f565b600160035f8373ffffffffffffffffffffffffffffffffffffffff1673ffffffffffffffffffffffffffffffffffffffff1681526020019081526020015f205f82825403925050819055505b5f73ffffffffffffffffffffffffffffffffffffffff168573ffffffffffffffffffffffffffffffffffffffff1614610fb657600160035f8773ffffffffffffffffffffffffffffffffffffffff1673ffffffffffffffffffffffffffffffffffffffff1681526020019081526020015f205f82825401925050819055505b8460025f8681526020019081526020015f205f6101000a81548173ffffffffffffffffffffffffffffffffffffffff021916908373ffffffffffffffffffffffffffffffffffffffff160217905550838573ffffffffffffffffffffffffffffffffffffffff168273ffffffffffffffffffffffffffffffffffffffff167fddf252ad1be2c89b69c2b068fc378daa952ba7f163c4a11628f55a4df523b3ef60405160405180910390a4809150509392505050565b611084828260405180602001604052805f8152506118e1565b5050565b8060065f8481526020019081526020015f2090816110a69190612757565b507ff8e1a15aba9398e019f0b49df1a4fde98ee17ae345cb5f6b5e2c27f5033e8ce7826040516110d69190612154565b60405180910390a15050565b6110ea610e47565b73ffffffffffffffffffffffffffffffffffffffff1661110861082b565b73ffffffffffffffffffffffffffffffffffffffff16146111675761112b610e47565b6040517f118cdaa700000000000000000000000000000000000000000000000000000000815260040161115e9190611ec3565b60405180910390fd5b565b5f60075f9054906101000a900473ffffffffffffffffffffffffffffffffffffffff1690508160075f6101000a81548173ffffffffffffffffffffffffffffffffffffffff021916908373ffffffffffffffffffffffffffffffffffffffff1602179055508173ffffffffffffffffffffffffffffffffffffffff168173ffffffffffffffffffffffffffffffffffffffff167f8be0079c531659141344cd1fd0a4f28419497f9722a3daafe3b4186f6b6457e060405160405180910390a35050565b5f73ffffffffffffffffffffffffffffffffffffffff168273ffffffffffffffffffffffffffffffffffffffff160361129c57816040517f5b08ba180000000000000000000000000000000000000000000000000000000081526004016112939190611ec3565b60405180910390fd5b8060055f8573ffffffffffffffffffffffffffffffffffffffff1673ffffffffffffffffffffffffffffffffffffffff1681526020019081526020015f205f8473ffffffffffffffffffffffffffffffffffffffff1673ffffffffffffffffffffffffffffffffffffffff1681526020019081526020015f205f6101000a81548160ff0219169083151502179055508173ffffffffffffffffffffffffffffffffffffffff168373ffffffffffffffffffffffffffffffffffffffff167f17307eab39ab6107e8899845ad3d59bd9653f200f220920489ca2b5937696c31836040516113889190611d7d565b60405180910390a3505050565b5f8373ffffffffffffffffffffffffffffffffffffffff163b111561153a578273ffffffffffffffffffffffffffffffffffffffff1663150b7a02868685856040518563ffffffff1660e01b81526004016113f39493929190612878565b6020604051808303815f875af192505050801561142e57506040513d601f19601f8201168201806040525081019061142b91906128d6565b60015b6114af573d805f811461145c576040519150601f19603f3d011682016040523d82523d5f602084013e611461565b606091505b505f8151036114a757836040517f64a0ae9200000000000000000000000000000000000000000000000000000000815260040161149e9190611ec3565b60405180910390fd5b805160208201fd5b63150b7a0260e01b7bffffffffffffffffffffffffffffffffffffffffffffffffffffffff1916817bffffffffffffffffffffffffffffffffffffffffffffffffffffffff19161461153857836040517f64a0ae9200000000000000000000000000000000000000000000000000000000815260040161152f9190611ec3565b60405180910390fd5b505b5050505050565b606060405180602001604052805f815250905090565b606061156282610d88565b505f61156c611541565b90505f81511161158a5760405180602001604052805f8152506115b5565b8061159484611904565b6040516020016115a5929190612583565b6040516020818303038152906040525b915050919050565b5f7f01ffc9a7000000000000000000000000000000000000000000000000000000007bffffffffffffffffffffffffffffffffffffffffffffffffffffffff1916827bffffffffffffffffffffffffffffffffffffffffffffffffffffffff1916149050919050565b5f60025f8381526020019081526020015f205f9054906101000a900473ffffffffffffffffffffffffffffffffffffffff169050919050565b808061169757505f73ffffffffffffffffffffffffffffffffffffffff168273ffffffffffffffffffffffffffffffffffffffff1614155b156117c9575f6116a684610d88565b90505f73ffffffffffffffffffffffffffffffffffffffff168373ffffffffffffffffffffffffffffffffffffffff161415801561171057508273ffffffffffffffffffffffffffffffffffffffff168173ffffffffffffffffffffffffffffffffffffffff1614155b801561172357506117218184610b95565b155b1561176557826040517fa9fbf51f00000000000000000000000000000000000000000000000000000000815260040161175c9190611ec3565b60405180910390fd5b81156117c757838573ffffffffffffffffffffffffffffffffffffffff168273ffffffffffffffffffffffffffffffffffffffff167f8c5be1e5ebec7d5bd14f71427d1e84f3dd0314c0f7b2291e5b200ac8c7c3b92560405160405180910390a45b505b8360045f8581526020019081526020015f205f6101000a81548173ffffffffffffffffffffffffffffffffffffffff021916908373ffffffffffffffffffffffffffffffffffffffff16021790555050505050565b6118298383836119ce565b6118dc575f73ffffffffffffffffffffffffffffffffffffffff168373ffffffffffffffffffffffffffffffffffffffff160361189d57806040517f7e2732890000000000000000000000000000000000000000000000000000000081526004016118949190612154565b60405180910390fd5b81816040517f177e802f0000000000000000000000000000000000000000000000000000000081526004016118d3929190612901565b60405180910390fd5b505050565b6118eb8383611a8e565b6118ff6118f6610e47565b5f858585611395565b505050565b60605f600161191284611b81565b0190505f8167ffffffffffffffff8111156119305761192f611f9c565b5b6040519080825280601f01601f1916602001820160405280156119625781602001600182028036833780820191505090505b5090505f82602083010190505b6001156119c3578080600190039150507f3031323334353637383961626364656600000000000000000000000000000000600a86061a8153600a85816119b8576119b7612928565b5b0494505f850361196f575b819350505050919050565b5f5f73ffffffffffffffffffffffffffffffffffffffff168373ffffffffffffffffffffffffffffffffffffffff1614158015611a8557508273ffffffffffffffffffffffffffffffffffffffff168473ffffffffffffffffffffffffffffffffffffffff161480611a465750611a458484610b95565b5b80611a8457508273ffffffffffffffffffffffffffffffffffffffff16611a6c83610e0e565b73ffffffffffffffffffffffffffffffffffffffff16145b5b90509392505050565b5f73ffffffffffffffffffffffffffffffffffffffff168273ffffffffffffffffffffffffffffffffffffffff1603611afe575f6040517f64a0ae92000000000000000000000000000000000000000000000000000000008152600401611af59190611ec3565b60405180910390fd5b5f611b0a83835f610e60565b90505f73ffffffffffffffffffffffffffffffffffffffff168173ffffffffffffffffffffffffffffffffffffffff1614611b7c575f6040517f73c6ac6e000000000000000000000000000000000000000000000000000000008152600401611b739190611ec3565b60405180910390fd5b505050565b5f5f5f90507a184f03e93ff9f4daa797ed6e38ed64bf6a1f0100000000000000008310611bdd577a184f03e93ff9f4daa797ed6e38ed64bf6a1f0100000000000000008381611bd357611bd2612928565b5b0492506040810190505b6d04ee2d6d415b85acef81000000008310611c1a576d04ee2d6d415b85acef81000000008381611c1057611c0f612928565b5b0492506020810190505b662386f26fc100008310611c4957662386f26fc100008381611c3f57611c3e612928565b5b0492506010810190505b6305f5e1008310611c72576305f5e1008381611c6857611c67612928565b5b0492506008810190505b6127108310611c97576127108381611c8d57611c8c612928565b5b0492506004810190505b60648310611cba5760648381611cb057611caf612928565b5b0492506002810190505b600a8310611cc9576001810190505b80915050919050565b5f604051905090565b5f5ffd5b5f5ffd5b5f7fffffffff0000000000000000000000000000000000000000000000000000000082169050919050565b611d1781611ce3565b8114611d21575f5ffd5b50565b5f81359050611d3281611d0e565b92915050565b5f60208284031215611d4d57611d4c611cdb565b5b5f611d5a84828501611d24565b91505092915050565b5f8115159050919050565b611d7781611d63565b82525050565b5f602082019050611d905f830184611d6e565b92915050565b5f81519050919050565b5f82825260208201905092915050565b8281835e5f83830152505050565b5f601f19601f8301169050919050565b5f611dd882611d96565b611de28185611da0565b9350611df2818560208601611db0565b611dfb81611dbe565b840191505092915050565b5f6020820190508181035f830152611e1e8184611dce565b905092915050565b5f819050919050565b611e3881611e26565b8114611e42575f5ffd5b50565b5f81359050611e5381611e2f565b92915050565b5f60208284031215611e6e57611e6d611cdb565b5b5f611e7b84828501611e45565b91505092915050565b5f73ffffffffffffffffffffffffffffffffffffffff82169050919050565b5f611ead82611e84565b9050919050565b611ebd81611ea3565b82525050565b5f602082019050611ed65f830184611eb4565b92915050565b611ee581611ea3565b8114611eef575f5ffd5b50565b5f81359050611f0081611edc565b92915050565b5f5f60408385031215611f1c57611f1b611cdb565b5b5f611f2985828601611ef2565b9250506020611f3a85828601611e45565b9150509250929050565b5f5f5f60608486031215611f5b57611f5a611cdb565b5b5f611f6886828701611ef2565b9350506020611f7986828701611ef2565b9250506040611f8a86828701611e45565b9150509250925092565b5f5ffd5b5f5ffd5b7f4e487b71000000000000000000000000000000000000000000000000000000005f52604160045260245ffd5b611fd282611dbe565b810181811067ffffffffffffffff82111715611ff157611ff0611f9c565b5b80604052505050565b5f612003611cd2565b905061200f8282611fc9565b919050565b5f67ffffffffffffffff82111561202e5761202d611f9c565b5b61203782611dbe565b9050602081019050919050565b828183375f83830152505050565b5f61206461205f84612014565b611ffa565b9050828152602081018484840111156120805761207f611f98565b5b61208b848285612044565b509392505050565b5f82601f8301126120a7576120a6611f94565b5b81356120b7848260208601612052565b91505092915050565b5f5f604083850312156120d6576120d5611cdb565b5b5f6120e385828601611e45565b925050602083013567ffffffffffffffff81111561210457612103611cdf565b5b61211085828601612093565b9150509250929050565b5f6020828403121561212f5761212e611cdb565b5b5f61213c84828501611ef2565b91505092915050565b61214e81611e26565b82525050565b5f6020820190506121675f830184612145565b92915050565b61217681611d63565b8114612180575f5ffd5b50565b5f813590506121918161216d565b92915050565b5f5f604083850312156121ad576121ac611cdb565b5b5f6121ba85828601611ef2565b92505060206121cb85828601612183565b9150509250929050565b5f5f604083850312156121eb576121ea611cdb565b5b5f6121f885828601611e45565b925050602061220985828601611ef2565b9150509250929050565b5f67ffffffffffffffff82111561222d5761222c611f9c565b5b61223682611dbe565b9050602081019050919050565b5f61225561225084612213565b611ffa565b90508281526020810184848401111561227157612270611f98565b5b61227c848285612044565b509392505050565b5f82601f83011261229857612297611f94565b5b81356122a8848260208601612243565b91505092915050565b5f5f5f5f608085870312156122c9576122c8611cdb565b5b5f6122d687828801611ef2565b94505060206122e787828801611ef2565b93505060406122f887828801611e45565b925050606085013567ffffffffffffffff81111561231957612318611cdf565b5b61232587828801612284565b91505092959194509250565b5f5f5f6060848603121561234857612347611cdb565b5b5f61235586828701611ef2565b935050602061236686828701611e45565b925050604084013567ffffffffffffffff81111561238757612386611cdf565b5b61239386828701612093565b9150509250925092565b5f5f604083850312156123b3576123b2611cdb565b5b5f6123c085828601611ef2565b92505060206123d185828601611ef2565b9150509250929050565b7f4e487b71000000000000000000000000000000000000000000000000000000005f52602260045260245ffd5b5f600282049050600182168061241f57607f821691505b602082108103612432576124316123db565b5b50919050565b5f60608201905061244b5f830186611eb4565b6124586020830185612145565b6124656040830184611eb4565b949350505050565b7f4d697373696f6e20616c726561647920636f6d706c65746564000000000000005f82015250565b5f6124a1601983611da0565b91506124ac8261246d565b602082019050919050565b5f6020820190508181035f8301526124ce81612495565b9050919050565b7f4e487b71000000000000000000000000000000000000000000000000000000005f52601160045260245ffd5b5f61250c82611e26565b91507fffffffffffffffffffffffffffffffffffffffffffffffffffffffffffffffff820361253e5761253d6124d5565b5b600182019050919050565b5f81905092915050565b5f61255d82611d96565b6125678185612549565b9350612577818560208601611db0565b80840191505092915050565b5f61258e8285612553565b915061259a8284612553565b91508190509392505050565b5f819050815f5260205f209050919050565b5f6020601f8301049050919050565b5f82821b905092915050565b5f600883026126027fffffffffffffffffffffffffffffffffffffffffffffffffffffffffffffffff826125c7565b61260c86836125c7565b95508019841693508086168417925050509392505050565b5f819050919050565b5f61264761264261263d84611e26565b612624565b611e26565b9050919050565b5f819050919050565b6126608361262d565b61267461266c8261264e565b8484546125d3565b825550505050565b5f5f905090565b61268b61267c565b612696818484612657565b505050565b5f5b828110156126bc576126b15f828401612683565b60018101905061269d565b505050565b601f82111561270f578282111561270e576126db816125a6565b6126e4836125b8565b6126ed856125b8565b60208610156126fa575f90505b8083016127098284038261269b565b505050505b5b505050565b5f82821c905092915050565b5f61272f5f1984600802612714565b1980831691505092915050565b5f6127478383612720565b9150826002028217905092915050565b61276082611d96565b67ffffffffffffffff81111561277957612778611f9c565b5b6127838254612408565b61278e8282856126c1565b5f60209050601f8311600181146127bf575f84156127ad578287015190505b6127b7858261273c565b86555061281e565b601f1984166127cd866125a6565b5f5b828110156127f4578489015182556001820191506020850194506020810190506127cf565b86831015612811578489015161280d601f891682612720565b8355505b6001600288020188555050505b505050505050565b5f81519050919050565b5f82825260208201905092915050565b5f61284a82612826565b6128548185612830565b9350612864818560208601611db0565b61286d81611dbe565b840191505092915050565b5f60808201905061288b5f830187611eb4565b6128986020830186611eb4565b6128a56040830185612145565b81810360608301526128b78184612840565b905095945050505050565b5f815190506128d081611d0e565b92915050565b5f602082840312156128eb576128ea611cdb565b5b5f6128f8848285016128c2565b91505092915050565b5f6040820190506129145f830185611eb4565b6129216020830184612145565b9392505050565b7f4e487b71000000000000000000000000000000000000000000000000000000005f52601260045260245ffdfea2646970667358221220cc684d478dd22c442ec7a29908c6956c28ae4021854a52c5f9938cafbde1092e64736f6c63430008220033","linkReferences":{}},"methodIdentifiers":{"adminMint(address,uint256,string)":"c91435e2","approve(address,uint256)":"095ea7b3","balanceOf(address)":"70a08231","completeMission(uint256,string)":"676209dc","getApproved(uint256)":"081812fc","isApprovedForAll(address,address)":"e985e9c5","missionCompleted(uint256,address)":"b335cca8","name()":"06fdde03","owner()":"8da5cb5b","ownerOf(uint256)":"6352211e","renounceOwnership()":"715018a6","safeTransferFrom(address,address,uint256)":"42842e0e","safeTransferFrom(address,address,uint256,bytes)":"b88d4fde","setApprovalForAll(address,bool)":"a22cb465","supportsInterface(bytes4)":"01ffc9a7","symbol()":"95d89b41","tokenCounter()":"d082e381","tokenURI(uint256)":"c87b56dd","transferFrom(address,address,uint256)":"23b872dd","transferOwnership(address)":"f2fde38b"},"id":35}