{
  "_format": "hh3-artifact-1",
  "contractName": "MissionNFT",
  "sourceName": "contracts/MissionNFT.sol",
  "abi": [
    {
      "inputs": [],
      "stateMutability": "nonpayable",
      "type": "constructor"
    },
    {
      "inputs": [
        {
          "internalType": "address",
          "name": "sender",
          "type": "address"
        },
        {
          "internalType": "uint256",
          "name": "tokenId",
          "type": "uint256"
        },
        {
          "internalType": "address",
          "name": "owner",
          "type": "address"
        }
      ],
      "name": "ERC721IncorrectOwner",
      "type": "error"
    },
    {
      "inputs": [
        {
          "internalType": "address",
          "name": "operator",
          "type": "address"
        },
        {
          "internalType": "uint256",
          "name": "tokenId",
          "type": "uint256"
        }
      ],
      "name": "ERC721InsufficientApproval",
      "type": "error"
    },
    {
      "inputs": [
        {
          "internalType": "address",
          "name": "approver",
          "type": "address"
        }
      ],
      "name": "ERC721InvalidApprover",
      "type": "error"
    },
    {
      "inputs": [
        {
          "internalType": "address",
          "name": "operator",
          "type": "address"
        }
      ],
      "name": "ERC721InvalidOperator",
      "type": "error"
    },
    {
      "inputs": [
        {
          "internalType": "address",
          "name": "owner",
          "type": "address"
        }
      ],
      "name": "ERC721InvalidOwner",
      "type": "error"
    },
    {
      "inputs": [
        {
          "internalType": "address",
          "name": "receiver",
          "type": "address"
        }
      ],
      "name": "ERC721InvalidReceiver",
      "type": "error"
    },
    {
      "inputs": [
        {
          "internalType": "address",
          "name": "sender",
          "type": "address"
        }
      ],
      "name": "ERC721InvalidSender",
      "type": "error"
    },
    {
      "inputs": [
        {
          "internalType": "uint256",
          "name": "tokenId",
          "type": "uint256"
        }
      ],
      "name": "ERC721NonexistentToken",
      "type": "error"
    },
    {
      "inputs": [
        {
          "internalType": "address",
          "name": "owner",
          "type": "address"
        }
      ],
      "name": "OwnableInvalidOwner",
      "type": "error"
    },
    {
      "inputs": [
        {
          "internalType": "address",
          "name": "account",
          "type": "address"
        }
      ],
      "name": "OwnableUnauthorizedAccount",
      "type": "error"
    },
    {
      "anonymous": false,
      "inputs": [
        {
          "indexed": true,
          "internalType": "address",
          "name": "owner",
          "type": "address"
        },
        {
          "indexed": true,
          "internalType": "address",
          "name": "approved",
          "type": "address"
        },
        {
          "indexed": true,
          "internalType": "uint256",
          "name": "tokenId",
          "type": "uint256"
        }
      ],
      "name": "Approval",
      "type": "event"
    },
    {
      "anonymous": false,
      "inputs": [
        {
          "indexed": true,
          "internalType": "address",
          "name": "owner",
          "type": "address"
        },
        {
          "indexed": true,
          "internalType": "address",
          "name": "operator",
          "type": "address"
        },
        {
          "indexed": false,
          "internalType": "bool",
          "name": "approved",
          "type": "bool"
        }
      ],
      "name": "ApprovalForAll",
      "type": "event"
    },
    {
      "anonymous": false,
      "inputs": [
        {
          "indexed": false,
          "internalType": "uint256",
          "name": "_fromTokenId",
          "type": "uint256"
        },
        {
          "indexed": false,
          "internalType": "uint256",
          "name": "_toTokenId",
          "type": "uint256"
        }
      ],
      "name": "BatchMetadataUpdate",
      "type": "event"
    },
    {
      "anonymous": false,
      "inputs": [
        {
          "indexed": false,
          "internalType": "uint256",
          "name": "_tokenId",
          "type": "uint256"
        }
      ],
      "name": "MetadataUpdate",
      "type": "event"
    },
    {
      "anonymous": false,
      "inputs": [
        {
          "indexed": true,
          "internalType": "address",
          "name": "previousOwner",
          "type": "address"
        },
        {
          "indexed": true,
          "internalType": "address",
          "name": "newOwner",
          "type": "address"
        }
      ],
      "name": "OwnershipTransferred",
      "type": "event"
    },
    {
      "anonymous": false,
      "inputs": [
        {
          "indexed": true,
          "internalType": "address",
          "name": "from",
          "type": "address"
        },
        {
          "indexed": true,
          "internalType": "address",
          "name": "to",
          "type": "address"
        },
        {
          "indexed": true,
          "internalType": "uint256",
          "name": "tokenId",
          "type": "uint256"
        }
      ],
      "name": "Transfer",
      "type": "event"
    },
    {
      "inputs": [
        {
          "internalType": "address",
          "name": "to",
          "type": "address"
        },
        {
          "internalType": "uint256",
          "name": "tokenId",
          "type": "uint256"
        }
      ],
      "name": "approve",
      "outputs": [],
      "stateMutability": "nonpayable",
      "type": "function"
    },
    {
      "inputs": [
        {
          "internalType": "address",
          "name": "owner",
          "type": "address"
        }
      ],
      "name": "balanceOf",
      "outputs": [
        {
          "internalType": "uint256",
          "name": "",
          "type": "uint256"
        }
      ],
      "stateMutability": "view",
      "type": "function"
    },
    {
      "inputs": [
        {
          "internalType": "uint256",
          "name": "missionId",
          "type": "uint256"
        },
        {
          "internalType": "string",
          "name": "tokenURI",
          "type": "string"
        }
      ],
      "name": "completeMission",
      "outputs": [],
      "stateMutability": "nonpayable",
      "type": "function"
    },
    {
      "inputs": [
        {
          "internalType": "uint256",
          "name": "tokenId",
          "type": "uint256"
        }
      ],
      "name": "getApproved",
      "outputs": [
        {
          "internalType": "address",
          "name": "",
          "type": "address"
        }
      ],
      "stateMutability": "view",
      "type": "function"
    },
    {
      "inputs": [
        {
          "internalType": "address",
          "name": "owner",
          "type": "address"
        },
        {
          "internalType": "address",
          "name": "operator",
          "type": "address"
        }
      ],
      "name": "isApprovedForAll",
      "outputs": [
        {
          "internalType": "bool",
          "name": "",
          "type": "bool"
        }
      ],
      "stateMutability": "view",
      "type": "function"
    },
    {
      "inputs": [
        {
          "internalType": "uint256",
          "name": "",
          "type": "uint256"
        },
        {
          "internalType": "address",
          "name": "",
          "type": "address"
        }
      ],
      "name": "missionCompleted",
      "outputs": [
        {
          "internalType": "bool",
          "name": "",
          "type": "bool"
        }
      ],
      "stateMutability": "view",
      "type": "function"
    },
    {
      "inputs": [],
      "name": "name",
      "outputs": [
        {
          "internalType": "string",
          "name": "",
          "type": "string"
        }
      ],
      "stateMutability": "view",
      "type": "function"
    },
    {
      "inputs": [],
      "name": "owner",
      "outputs": [
        {
          "internalType": "address",
          "name": "",
          "type": "address"
        }
      ],
      "stateMutability": "view",
      "type": "function"
    },
    {
      "inputs": [
        {
          "internalType": "uint256",
          "name": "tokenId",
          "type": "uint256"
        }
      ],
      "name": "ownerOf",
      "outputs": [
        {
          "internalType": "address",
          "name": "",
          "type": "address"
        }
      ],
      "stateMutability": "view",
      "type": "function"
    },
    {
      "inputs": [],
      "name": "renounceOwnership",
      "outputs": [],
      "stateMutability": "nonpayable",
      "type": "function"
    },
    {
      "inputs": [
        {
          "internalType": "address",
          "name": "from",
          "type": "address"
        },
        {
          "internalType": "address",
          "name": "to",
          "type": "address"
        },
        {
          "internalType": "uint256",
          "name": "tokenId",
          "type": "uint256"
        }
      ],
      "name": "safeTransferFrom",
      "outputs": [],
      "stateMutability": "nonpayable",
      "type": "function"
    },
    {
      "inputs": [
        {
          "internalType": "address",
          "name": "from",
          "type": "address"
        },
        {
          "internalType": "address",
          "name": "to",
          "type": "address"
        },
        {
          "internalType": "uint256",
          "name": "tokenId",
          "type": "uint256"
        },
        {
          "internalType": "bytes",
          "name": "data",
          "type": "bytes"
        }
      ],
      "name": "safeTransferFrom",
      "outputs": [],
      "stateMutability": "nonpayable",
      "type": "function"
    },
    {
      "inputs": [
        {
          "internalType": "address",
          "name": "operator",
          "type": "address"
        },
        {
          "internalType": "bool",
          "name": "approved",
          "type": "bool"
        }
      ],
      "name": "setApprovalForAll",
      "outputs": [],
      "stateMutability": "nonpayable",
      "type": "function"
    },
    {
      "inputs": [
        {
          "internalType": "bytes4",
          "name": "interfaceId",
          "type": "bytes4"
        }
      ],
      "name": "supportsInterface",
      "outputs": [
        {
          "internalType": "bool",
          "name": "",
          "type": "bool"
        }
      ],
      "stateMutability": "view",
      "type": "function"
    },
    {
      "inputs": [],
      "name": "symbol",
      "outputs": [
        {
          "internalType": "string",
          "name": "",
          "type": "string"
        }
      ],
      "stateMutability": "view",
      "type": "function"
    },
    {
      "inputs": [],
      "name": "tokenCounter",
      "outputs": [
        {
          "internalType": "uint256",
          "name": "",
          "type": "uint256"
        }
      ],
      "stateMutability": "view",
      "type": "function"
    },
    {
      "inputs": [
        {
          "internalType": "uint256",
          "name": "tokenId",
          "type": "uint256"
        }
      ],
      "name": "tokenURI",
      "outputs": [
        {
          "internalType": "string",
          "name": "",
          "type": "string"
        }
      ],
      "stateMutability": "view",
      "type": "function"
    },
    {
      "inputs": [
        {
          "internalType": "address",
          "name": "from",
          "type": "address"
        },
        {
          "internalType": "address",
          "name": "to",
          "type": "address"
        },
        {
          "internalType": "uint256",
          "name": "tokenId",
          "type": "uint256"
        }
      ],
      "name": "transferFrom",
      "outputs": [],
      "stateMutability": "nonpayable",
      "type": "function"
    },
    {
      "inputs": [
        {
          "internalType": "address",
          "name": "newOwner",
          "type": "address"
        }
      ],
      "name": "transferOwnership",
      "outputs": [],
      "stateMutability": "nonpayable",
      "type": "function"
    }
  ],
  "bytecode": "0x608060405234801562000010575f80fd5b50336040518060400160405280600e81526020017f436c65616e204d697373696f6e730000000000000000000000000000000000008152506040518060400160405280600581526020017f434d495353000000000000000000000000000000000000000000000000000000815250815f90816200008e91906200045c565b508060019081620000a091906200045c565b5050505f73ffffffffffffffffffffffffffffffffffffffff168173ffffffffffffffffffffffffffffffffffffffff160362000116575f6040517f1e4fbdf70000000000000000000000000000000000000000000000000000000081526004016200010d919062000583565b60405180910390fd5b62000127816200013560201b60201c565b505f6008819055506200059e565b5f60075f9054906101000a900473ffffffffffffffffffffffffffffffffffffffff1690508160075f6101000a81548173ffffffffffffffffffffffffffffffffffffffff021916908373ffffffffffffffffffffffffffffffffffffffff1602179055508173ffffffffffffffffffffffffffffffffffffffff168173ffffffffffffffffffffffffffffffffffffffff167f8be0079c531659141344cd1fd0a4f28419497f9722a3daafe3b4186f6b6457e060405160405180910390a35050565b5f81519050919050565b7f4e487b71000000000000000000000000000000000000000000000000000000005f52604160045260245ffd5b7f4e487b71000000000000000000000000000000000000000000000000000000005f52602260045260245ffd5b5f60028204905060018216806200027457607f821691505b6020821081036200028a57620002896200022f565b5b50919050565b5f819050815f5260205f209050919050565b5f6020601f8301049050919050565b5f82821b905092915050565b5f60088302620002ee7fffffffffffffffffffffffffffffffffffffffffffffffffffffffffffffffff82620002b1565b620002fa8683620002b1565b95508019841693508086168417925050509392505050565b5f819050919050565b5f819050919050565b5f620003446200033e620003388462000312565b6200031b565b62000312565b9050919050565b5f819050919050565b6200035f8362000324565b620003776200036e826200034b565b848454620002bd565b825550505050565b5f90565b6200038d6200037f565b6200039a81848462000354565b505050565b5b81811015620003c157620003b55f8262000383565b600181019050620003a0565b5050565b601f8211156200041057620003da8162000290565b620003e584620002a2565b81016020851015620003f5578190505b6200040d6200040485620002a2565b8301826200039f565b50505b505050565b5f82821c905092915050565b5f620004325f198460080262000415565b1980831691505092915050565b5f6200044c838362000421565b9150826002028217905092915050565b6200046782620001f8565b67ffffffffffffffff81111562000483576200048262000202565b5b6200048f82546200025c565b6200049c828285620003c5565b5f60209050601f831160018114620004d2575f8415620004bd578287015190505b620004c985826200043f565b86555062000538565b601f198416620004e28662000290565b5f5b828110156200050b57848901518255600182019150602085019450602081019050620004e4565b868310156200052b578489015162000527601f89168262000421565b8355505b6001600288020188555050505b505050505050565b5f73ffffffffffffffffffffffffffffffffffffffff82169050919050565b5f6200056b8262000540565b9050919050565b6200057d816200055f565b82525050565b5f602082019050620005985f83018462000572565b92915050565b6127c280620005ac5f395ff3fe608060405234801561000f575f80fd5b506004361061011f575f3560e01c8063715018a6116100ab578063b88d4fde1161006f578063b88d4fde14610303578063c87b56dd1461031f578063d082e3811461034f578063e985e9c51461036d578063f2fde38b1461039d5761011f565b8063715018a6146102715780638da5cb5b1461027b57806395d89b4114610299578063a22cb465146102b7578063b335cca8146102d35761011f565b806323b872dd116100f257806323b872dd146101bd57806342842e0e146101d95780636352211e146101f5578063676209dc1461022557806370a08231146102415761011f565b806301ffc9a71461012357806306fdde0314610153578063081812fc14610171578063095ea7b3146101a1575b5f80fd5b61013d60048036038101906101389190611bd5565b6103b9565b60405161014a9190611c1a565b60405180910390f35b61015b610419565b6040516101689190611cbd565b60405180910390f35b61018b60048036038101906101869190611d10565b6104a8565b6040516101989190611d7a565b60405180910390f35b6101bb60048036038101906101b69190611dbd565b6104c3565b005b6101d760048036038101906101d29190611dfb565b6104d9565b005b6101f360048036038101906101ee9190611dfb565b6105d8565b005b61020f600480360381019061020a9190611d10565b6105f7565b60405161021c9190611d7a565b60405180910390f35b61023f600480360381019061023a9190611f77565b610608565b005b61025b60048036038101906102569190611fd1565b61073b565b604051610268919061200b565b60405180910390f35b6102796107f1565b005b610283610804565b6040516102909190611d7a565b60405180910390f35b6102a161082c565b6040516102ae9190611cbd565b60405180910390f35b6102d160048036038101906102cc919061204e565b6108bc565b005b6102ed60048036038101906102e8919061208c565b6108d2565b6040516102fa9190611c1a565b60405180910390f35b61031d60048036038101906103189190612168565b6108fc565b005b61033960048036038101906103349190611d10565b610921565b6040516103469190611cbd565b60405180910390f35b610357610a2c565b604051610364919061200b565b60405180910390f35b610387600480360381019061038291906121e8565b610a32565b6040516103949190611c1a565b60405180910390f35b6103b760048036038101906103b29190611fd1565b610ac0565b005b5f634906490660e01b7bffffffffffffffffffffffffffffffffffffffffffffffffffffffff1916827bffffffffffffffffffffffffffffffffffffffffffffffffffffffff19161480610412575061041182610b44565b5b9050919050565b60605f805461042790612253565b80601f016020809104026020016040519081016040528092919081815260200182805461045390612253565b801561049e5780601f106104755761010080835404028352916020019161049e565b820191905f5260205f20905b81548152906001019060200180831161048157829003601f168201915b5050505050905090565b5f6104b282610c25565b506104bc82610cab565b9050919050565b6104d582826104d0610ce4565b610ceb565b5050565b5f73ffffffffffffffffffffffffffffffffffffffff168273ffffffffffffffffffffffffffffffffffffffff1603610549575f6040517f64a0ae920000000000000000000000000000000000000000000000000000000081526004016105409190611d7a565b60405180910390fd5b5f61055c8383610557610ce4565b610cfd565b90508373ffffffffffffffffffffffffffffffffffffffff168173ffffffffffffffffffffffffffffffffffffffff16146105d2578382826040517f64283d7b0000000000000000000000000000000000000000000000000000000081526004016105c993929190612283565b60405180910390fd5b50505050565b6105f283838360405180602001604052805f8152506108fc565b505050565b5f61060182610c25565b9050919050565b60095f8381526020019081526020015f205f3373ffffffffffffffffffffffffffffffffffffffff1673ffffffffffffffffffffffffffffffffffffffff1681526020019081526020015f205f9054906101000a900460ff16156106a1576040517f08c379a000000000000000000000000000000000000000000000000000000000815260040161069890612302565b60405180910390fd5b5f600854905060085f8154809291906106b99061234d565b91905055506106c83382610f08565b6106d28183610f25565b600160095f8581526020019081526020015f205f3373ffffffffffffffffffffffffffffffffffffffff1673ffffffffffffffffffffffffffffffffffffffff1681526020019081526020015f205f6101000a81548160ff021916908315150217905550505050565b5f8073ffffffffffffffffffffffffffffffffffffffff168273ffffffffffffffffffffffffffffffffffffffff16036107ac575f6040517f89c62b640000000000000000000000000000000000000000000000000000000081526004016107a39190611d7a565b60405180910390fd5b60035f8373ffffffffffffffffffffffffffffffffffffffff1673ffffffffffffffffffffffffffffffffffffffff1681526020019081526020015f20549050919050565b6107f9610f7f565b6108025f611006565b565b5f60075f9054906101000a900473ffffffffffffffffffffffffffffffffffffffff16905090565b60606001805461083b90612253565b80601f016020809104026020016040519081016040528092919081815260200182805461086790612253565b80156108b25780601f10610889576101008083540402835291602001916108b2565b820191905f5260205f20905b81548152906001019060200180831161089557829003601f168201915b5050505050905090565b6108ce6108c7610ce4565b83836110c9565b5050565b6009602052815f5260405f20602052805f5260405f205f915091509054906101000a900460ff1681565b6109078484846104d9565b61091b610912610ce4565b85858585611232565b50505050565b606061092c82610c25565b505f60065f8481526020019081526020015f20805461094a90612253565b80601f016020809104026020016040519081016040528092919081815260200182805461097690612253565b80156109c15780601f10610998576101008083540402835291602001916109c1565b820191905f5260205f20905b8154815290600101906020018083116109a457829003601f168201915b505050505090505f6109d16113de565b90505f8151036109e5578192505050610a27565b5f82511115610a19578082604051602001610a019291906123ce565b60405160208183030381529060405292505050610a27565b610a22846113f4565b925050505b919050565b60085481565b5f60055f8473ffffffffffffffffffffffffffffffffffffffff1673ffffffffffffffffffffffffffffffffffffffff1681526020019081526020015f205f8373ffffffffffffffffffffffffffffffffffffffff1673ffffffffffffffffffffffffffffffffffffffff1681526020019081526020015f205f9054906101000a900460ff16905092915050565b610ac8610f7f565b5f73ffffffffffffffffffffffffffffffffffffffff168173ffffffffffffffffffffffffffffffffffffffff1603610b38575f6040517f1e4fbdf7000000000000000000000000000000000000000000000000000000008152600401610b2f9190611d7a565b60405180910390fd5b610b4181611006565b50565b5f7f80ac58cd000000000000000000000000000000000000000000000000000000007bffffffffffffffffffffffffffffffffffffffffffffffffffffffff1916827bffffffffffffffffffffffffffffffffffffffffffffffffffffffff19161480610c0e57507f5b5e139f000000000000000000000000000000000000000000000000000000007bffffffffffffffffffffffffffffffffffffffffffffffffffffffff1916827bffffffffffffffffffffffffffffffffffffffffffffffffffffffff1916145b80610c1e5750610c1d8261145a565b5b9050919050565b5f80610c30836114c3565b90505f73ffffffffffffffffffffffffffffffffffffffff168173ffffffffffffffffffffffffffffffffffffffff1603610ca257826040517f7e273289000000000000000000000000000000000000000000000000000000008152600401610c99919061200b565b60405180910390fd5b80915050919050565b5f60045f8381526020019081526020015f205f9054906101000a900473ffffffffffffffffffffffffffffffffffffffff169050919050565b5f33905090565b610cf883838360016114fc565b505050565b5f80610d08846114c3565b90505f73ffffffffffffffffffffffffffffffffffffffff168373ffffffffffffffffffffffffffffffffffffffff1614610d4957610d488184866116bb565b5b5f73ffffffffffffffffffffffffffffffffffffffff168173ffffffffffffffffffffffffffffffffffffffff1614610dd457610d885f855f806114fc565b600160035f8373ffffffffffffffffffffffffffffffffffffffff1673ffffffffffffffffffffffffffffffffffffffff1681526020019081526020015f205f82825403925050819055505b5f73ffffffffffffffffffffffffffffffffffffffff168573ffffffffffffffffffffffffffffffffffffffff1614610e5357600160035f8773ffffffffffffffffffffffffffffffffffffffff1673ffffffffffffffffffffffffffffffffffffffff1681526020019081526020015f205f82825401925050819055505b8460025f8681526020019081526020015f205f6101000a81548173ffffffffffffffffffffffffffffffffffffffff021916908373ffffffffffffffffffffffffffffffffffffffff160217905550838573ffffffffffffffffffffffffffffffffffffffff168273ffffffffffffffffffffffffffffffffffffffff167fddf252ad1be2c89b69c2b068fc378daa952ba7f163c4a11628f55a4df523b3ef60405160405180910390a4809150509392505050565b610f21828260405180602001604052805f81525061177e565b5050565b8060065f8481526020019081526020015f209081610f43919061258e565b507ff8e1a15aba9398e019f0b49df1a4fde98ee17ae345cb5f6b5e2c27f5033e8ce782604051610f73919061200b565b60405180910390a15050565b610f87610ce4565b73ffffffffffffffffffffffffffffffffffffffff16610fa5610804565b73ffffffffffffffffffffffffffffffffffffffff161461100457610fc8610ce4565b6040517f118cdaa7000000000000000000000000000000000000000000000000000000008152600401610ffb9190611d7a565b60405180910390fd5b565b5f60075f9054906101000a900473ffffffffffffffffffffffffffffffffffffffff1690508160075f6101000a81548173ffffffffffffffffffffffffffffffffffffffff021916908373ffffffffffffffffffffffffffffffffffffffff1602179055508173ffffffffffffffffffffffffffffffffffffffff168173ffffffffffffffffffffffffffffffffffffffff167f8be0079c531659141344cd1fd0a4f28419497f9722a3daafe3b4186f6b6457e060405160405180910390a35050565b5f73ffffffffffffffffffffffffffffffffffffffff168273ffffffffffffffffffffffffffffffffffffffff160361113957816040517f5b08ba180000000000000000000000000000000000000000000000000000000081526004016111309190611d7a565b60405180910390fd5b8060055f8573ffffffffffffffffffffffffffffffffffffffff1673ffffffffffffffffffffffffffffffffffffffff1681526020019081526020015f205f8473ffffffffffffffffffffffffffffffffffffffff1673ffffffffffffffffffffffffffffffffffffffff1681526020019081526020015f205f6101000a81548160ff0219169083151502179055508173ffffffffffffffffffffffffffffffffffffffff168373ffffffffffffffffffffffffffffffffffffffff167f17307eab39ab6107e8899845ad3d59bd9653f200f220920489ca2b5937696c31836040516112259190611c1a565b60405180910390a3505050565b5f8373ffffffffffffffffffffffffffffffffffffffff163b11156113d7578273ffffffffffffffffffffffffffffffffffffffff1663150b7a02868685856040518563ffffffff1660e01b815260040161129094939291906126af565b6020604051808303815f875af19250505080156112cb57506040513d601f19601f820116820180604052508101906112c8919061270d565b60015b61134c573d805f81146112f9576040519150601f19603f3d011682016040523d82523d5f602084013e6112fe565b606091505b505f81510361134457836040517f64a0ae9200000000000000000000000000000000000000000000000000000000815260040161133b9190611d7a565b60405180910390fd5b805160208201fd5b63150b7a0260e01b7bffffffffffffffffffffffffffffffffffffffffffffffffffffffff1916817bffffffffffffffffffffffffffffffffffffffffffffffffffffffff1916146113d557836040517f64a0ae920000000000000000000000000000000000000000000000000000000081526004016113cc9190611d7a565b60405180910390fd5b505b5050505050565b606060405180602001604052805f815250905090565b60606113ff82610c25565b505f6114096113de565b90505f8151116114275760405180602001604052805f815250611452565b80611431846117a1565b6040516020016114429291906123ce565b6040516020818303038152906040525b915050919050565b5f7f01ffc9a7000000000000000000000000000000000000000000000000000000007bffffffffffffffffffffffffffffffffffffffffffffffffffffffff1916827bffffffffffffffffffffffffffffffffffffffffffffffffffffffff1916149050919050565b5f60025f8381526020019081526020015f205f9054906101000a900473ffffffffffffffffffffffffffffffffffffffff169050919050565b808061153457505f73ffffffffffffffffffffffffffffffffffffffff168273ffffffffffffffffffffffffffffffffffffffff1614155b15611666575f61154384610c25565b90505f73ffffffffffffffffffffffffffffffffffffffff168373ffffffffffffffffffffffffffffffffffffffff16141580156115ad57508273ffffffffffffffffffffffffffffffffffffffff168173ffffffffffffffffffffffffffffffffffffffff1614155b80156115c057506115be8184610a32565b155b1561160257826040517fa9fbf51f0000000000000000000000000000000000000000000000000000000081526004016115f99190611d7a565b60405180910390fd5b811561166457838573ffffffffffffffffffffffffffffffffffffffff168273ffffffffffffffffffffffffffffffffffffffff167f8c5be1e5ebec7d5bd14f71427d1e84f3dd0314c0f7b2291e5b200ac8c7c3b92560405160405180910390a45b505b8360045f8581526020019081526020015f205f6101000a81548173ffffffffffffffffffffffffffffffffffffffff021916908373ffffffffffffffffffffffffffffffffffffffff16021790555050505050565b6116c683838361186b565b611779575f73ffffffffffffffffffffffffffffffffffffffff168373ffffffffffffffffffffffffffffffffffffffff160361173a57806040517f7e273289000000000000000000000000000000000000000000000000000000008152600401611731919061200b565b60405180910390fd5b81816040517f177e802f000000000000000000000000000000000000000000000000000000008152600401611770929190612738565b60405180910390fd5b505050565b611788838361192b565b61179c611793610ce4565b5f858585611232565b505050565b60605f60016117af84611a1e565b0190505f8167ffffffffffffffff8111156117cd576117cc611e53565b5b6040519080825280601f01601f1916602001820160405280156117ff5781602001600182028036833780820191505090505b5090505f82602083010190505b600115611860578080600190039150507f3031323334353637383961626364656600000000000000000000000000000000600a86061a8153600a85816118555761185461275f565b5b0494505f850361180c575b819350505050919050565b5f8073ffffffffffffffffffffffffffffffffffffffff168373ffffffffffffffffffffffffffffffffffffffff161415801561192257508273ffffffffffffffffffffffffffffffffffffffff168473ffffffffffffffffffffffffffffffffffffffff1614806118e357506118e28484610a32565b5b8061192157508273ffffffffffffffffffffffffffffffffffffffff1661190983610cab565b73ffffffffffffffffffffffffffffffffffffffff16145b5b90509392505050565b5f73ffffffffffffffffffffffffffffffffffffffff168273ffffffffffffffffffffffffffffffffffffffff160361199b575f6040517f64a0ae920000000000000000000000000000000000000000000000000000000081526004016119929190611d7a565b60405180910390fd5b5f6119a783835f610cfd565b90505f73ffffffffffffffffffffffffffffffffffffffff168173ffffffffffffffffffffffffffffffffffffffff1614611a19575f6040517f73c6ac6e000000000000000000000000000000000000000000000000000000008152600401611a109190611d7a565b60405180910390fd5b505050565b5f805f90507a184f03e93ff9f4daa797ed6e38ed64bf6a1f0100000000000000008310611a7a577a184f03e93ff9f4daa797ed6e38ed64bf6a1f0100000000000000008381611a7057611a6f61275f565b5b0492506040810190505b6d04ee2d6d415b85acef81000000008310611ab7576d04ee2d6d415b85acef81000000008381611aad57611aac61275f565b5b0492506020810190505b662386f26fc100008310611ae657662386f26fc100008381611adc57611adb61275f565b5b0492506010810190505b6305f5e1008310611b0f576305f5e1008381611b0557611b0461275f565b5b0492506008810190505b6127108310611b34576127108381611b2a57611b2961275f565b5b0492506004810190505b60648310611b575760648381611b4d57611b4c61275f565b5b0492506002810190505b600a8310611b66576001810190505b80915050919050565b5f604051905090565b5f80fd5b5f80fd5b5f7fffffffff0000000000000000000000000000000000000000000000000000000082169050919050565b611bb481611b80565b8114611bbe575f80fd5b50565b5f81359050611bcf81611bab565b92915050565b5f60208284031215611bea57611be9611b78565b5b5f611bf784828501611bc1565b91505092915050565b5f8115159050919050565b611c1481611c00565b82525050565b5f602082019050611c2d5f830184611c0b565b92915050565b5f81519050919050565b5f82825260208201905092915050565b5f5b83811015611c6a578082015181840152602081019050611c4f565b5f8484015250505050565b5f601f19601f8301169050919050565b5f611c8f82611c33565b611c998185611c3d565b9350611ca9818560208601611c4d565b611cb281611c75565b840191505092915050565b5f6020820190508181035f830152611cd58184611c85565b905092915050565b5f819050919050565b611cef81611cdd565b8114611cf9575f80fd5b50565b5f81359050611d0a81611ce6565b92915050565b5f60208284031215611d2557611d24611b78565b5b5f611d3284828501611cfc565b91505092915050565b5f73ffffffffffffffffffffffffffffffffffffffff82169050919050565b5f611d6482611d3b565b9050919050565b611d7481611d5a565b82525050565b5f602082019050611d8d5f830184611d6b565b92915050565b611d9c81611d5a565b8114611da6575f80fd5b50565b5f81359050611db781611d93565b92915050565b5f8060408385031215611dd357611dd2611b78565b5b5f611de085828601611da9565b9250506020611df185828601611cfc565b9150509250929050565b5f805f60608486031215611e1257611e11611b78565b5b5f611e1f86828701611da9565b9350506020611e3086828701611da9565b9250506040611e4186828701611cfc565b9150509250925092565b5f80fd5b5f80fd5b7f4e487b71000000000000000000000000000000000000000000000000000000005f52604160045260245ffd5b611e8982611c75565b810181811067ffffffffffffffff82111715611ea857611ea7611e53565b5b80604052505050565b5f611eba611b6f565b9050611ec68282611e80565b919050565b5f67ffffffffffffffff821115611ee557611ee4611e53565b5b611eee82611c75565b9050602081019050919050565b828183375f83830152505050565b5f611f1b611f1684611ecb565b611eb1565b905082815260208101848484011115611f3757611f36611e4f565b5b611f42848285611efb565b509392505050565b5f82601f830112611f5e57611f5d611e4b565b5b8135611f6e848260208601611f09565b91505092915050565b5f8060408385031215611f8d57611f8c611b78565b5b5f611f9a85828601611cfc565b925050602083013567ffffffffffffffff811115611fbb57611fba611b7c565b5b611fc785828601611f4a565b9150509250929050565b5f60208284031215611fe657611fe5611b78565b5b5f611ff384828501611da9565b91505092915050565b61200581611cdd565b82525050565b5f60208201905061201e5f830184611ffc565b92915050565b61202d81611c00565b8114612037575f80fd5b50565b5f8135905061204881612024565b92915050565b5f806040838503121561206457612063611b78565b5b5f61207185828601611da9565b92505060206120828582860161203a565b9150509250929050565b5f80604083850312156120a2576120a1611b78565b5b5f6120af85828601611cfc565b92505060206120c085828601611da9565b9150509250929050565b5f67ffffffffffffffff8211156120e4576120e3611e53565b5b6120ed82611c75565b9050602081019050919050565b5f61210c612107846120ca565b611eb1565b90508281526020810184848401111561212857612127611e4f565b5b612133848285611efb565b509392505050565b5f82601f83011261214f5761214e611e4b565b5b813561215f8482602086016120fa565b91505092915050565b5f805f80608085870312156121805761217f611b78565b5b5f61218d87828801611da9565b945050602061219e87828801611da9565b93505060406121af87828801611cfc565b925050606085013567ffffffffffffffff8111156121d0576121cf611b7c565b5b6121dc8782880161213b565b91505092959194509250565b5f80604083850312156121fe576121fd611b78565b5b5f61220b85828601611da9565b925050602061221c85828601611da9565b9150509250929050565b7f4e487b71000000000000000000000000000000000000000000000000000000005f52602260045260245ffd5b5f600282049050600182168061226a57607f821691505b60208210810361227d5761227c612226565b5b50919050565b5f6060820190506122965f830186611d6b565b6122a36020830185611ffc565b6122b06040830184611d6b565b949350505050565b7f4d697373696f6e20616c726561647920636f6d706c65746564000000000000005f82015250565b5f6122ec601983611c3d565b91506122f7826122b8565b602082019050919050565b5f6020820190508181035f830152612319816122e0565b9050919050565b7f4e487b71000000000000000000000000000000000000000000000000000000005f52601160045260245ffd5b5f61235782611cdd565b91507fffffffffffffffffffffffffffffffffffffffffffffffffffffffffffffffff820361238957612388612320565b5b600182019050919050565b5f81905092915050565b5f6123a882611c33565b6123b28185612394565b93506123c2818560208601611c4d565b80840191505092915050565b5f6123d9828561239e565b91506123e5828461239e565b91508190509392505050565b5f819050815f5260205f209050919050565b5f6020601f8301049050919050565b5f82821b905092915050565b5f6008830261244d7fffffffffffffffffffffffffffffffffffffffffffffffffffffffffffffffff82612412565b6124578683612412565b95508019841693508086168417925050509392505050565b5f819050919050565b5f61249261248d61248884611cdd565b61246f565b611cdd565b9050919050565b5f819050919050565b6124ab83612478565b6124bf6124b782612499565b84845461241e565b825550505050565b5f90565b6124d36124c7565b6124de8184846124a2565b505050565b5b81811015612501576124f65f826124cb565b6001810190506124e4565b5050565b601f82111561254657612517816123f1565b61252084612403565b8101602085101561252f578190505b61254361253b85612403565b8301826124e3565b50505b505050565b5f82821c905092915050565b5f6125665f198460080261254b565b1980831691505092915050565b5f61257e8383612557565b9150826002028217905092915050565b61259782611c33565b67ffffffffffffffff8111156125b0576125af611e53565b5b6125ba8254612253565b6125c5828285612505565b5f60209050601f8311600181146125f6575f84156125e4578287015190505b6125ee8582612573565b865550612655565b601f198416612604866123f1565b5f5b8281101561262b57848901518255600182019150602085019450602081019050612606565b868310156126485784890151612644601f891682612557565b8355505b6001600288020188555050505b505050505050565b5f81519050919050565b5f82825260208201905092915050565b5f6126818261265d565b61268b8185612667565b935061269b818560208601611c4d565b6126a481611c75565b840191505092915050565b5f6080820190506126c25f830187611d6b565b6126cf6020830186611d6b565b6126dc6040830185611ffc565b81810360608301526126ee8184612677565b905095945050505050565b5f8151905061270781611bab565b92915050565b5f6020828403121561272257612721611b78565b5b5f61272f848285016126f9565b91505092915050565b5f60408201905061274b5f830185611d6b565b6127586020830184611ffc565b9392505050565b7f4e487b71000000000000000000000000000000000000000000000000000000005f52601260045260245ffdfea26469706673582212202d7401307d0dde83bdd56b5c211aba03acfa027b637ff160c4950260111e952864736f6c63430008140033",
  "linkReferences": {},
  "deployedLinkReferences": {},
  "immutableReferences": {},
  "inputSourceName": "project/contracts/MissionNFT.sol",
  "buildInfoId": "solc-0_8_20-58f856cd32d716705d94e22622cd9e040a81e0b7"
}